{
  "transactions": [
    {
      "hash": "0x03b6fd523eddd8331e588ab55bf3a2787a09c748b150f3f361765907f749a667",
      "transactionType": "CALL",
      "contractName": null,
      "contractAddress": "0x779877a7b0d9e8603169ddbd7836e478b4624789",
      "function": "transferAndCall(address,uint256,bytes)",
      "arguments": [
        "0x9DdfaCa8183c41ad55329BdeeD9F6A8d53168B1B",
        "3000000000000000000",
        "0xb1a2e00259e2ebab5667c27120dede8150dc61d93c4fe43a1e7e672baa2422b5"
      ],
      "transaction": {
        "from": "0x63c013128bf5c7628fc8b87b68aa90442af312aa",
        "to": "0x779877a7b0d9e8603169ddbd7836e478b4624789",
        "gas": "0x1c1ff",
        "value": "0x0",
        "input": "0x4000aea00000000000000000000000009ddfaca8183c41ad55329bdeed9f6a8d53168b1b00000000000000000000000000000000000000000000000029a2241af62c000000000000000000000000000000000000000000000000000000000000000000600000000000000000000000000000000000000000000000000000000000000020b1a2e00259e2ebab5667c27120dede8150dc61d93c4fe43a1e7e672baa2422b5",
        "nonce": "0x3a",
        "chainId": "0xaa36a7"
      },
      "additionalContracts": [],
      "isFixedGasLimit": false
    }
  ],
  "receipts": [
    {
      "status": "0x1",
      "cumulativeGasUsed": "0x2a72626",
      "logs": [
        {
          "address": "0x779877a7b0d9e8603169ddbd7836e478b4624789",
          "topics": [
            "0xddf252ad1be2c89b69c2b068fc378daa952ba7f163c4a11628f55a4df523b3ef",
            "0x00000000000000000000000063c013128bf5c7628fc8b87b68aa90442af312aa",
            "0x0000000000000000000000009ddfaca8183c41ad55329bdeed9f6a8d53168b1b"
          ],
          "data": "0x00000000000000000000000000000000000000000000000029a2241af62c0000",
          "blockHash": "0x1d019b98a5ed42e2322205c2f313a44d42e2e29d8e09c01415e470064170ce3e",
          "blockNumber": "0x9c1b24",
          "blockTimestamp": "0x698afa98",
          "transactionHash": "0x03b6fd523eddd8331e588ab55bf3a2787a09c748b150f3f361765907f749a667",
          "transactionIndex": "0x6d",
          "logIndex": "0xd9",
          "removed": false
        },
        {
          "address": "0x779877a7b0d9e8603169ddbd7836e478b4624789",
          "topics": [
            "0xe19260aff97b920c7df27010903aeb9c8d2be5d310a2c67824cf3f15396e4c16",
            "0x00000000000000000000000063c013128bf5c7628fc8b87b68aa90442af312aa",
            "0x0000000000000000000000009ddfaca8183c41ad55329bdeed9f6a8d53168b1b"
          ],
          "data": "0x00000000000000000000000000000000000000000000000029a2241af62c000000000000000000000000000000000000000000000000000000000000000000400000000000000000000000000000000000000000000000000000000000000020b1a2e00259e2ebab5667c27120dede8150dc61d93c4fe43a1e7e672baa2422b5",
          "blockHash": "0x1d019b98a5ed42e2322205c2f313a44d42e2e29d8e09c01415e470064170ce3e",
          "blockNumber": "0x9c1b24",
          "blockTimestamp": "0x698afa98",
          "transactionHash": "0x03b6fd523eddd8331e588ab55bf3a2787a09c748b150f3f361765907f749a667",
          "transactionIndex": "0x6d",
          "logIndex": "0xda",
          "removed": false
        },
        {
          "address": "0x9ddfaca8183c41ad55329bdeed9f6a8d53168b1b",
          "topics": [
            "0x1ced9348ff549fceab2ac57cd3a9de38edaaab274b725ee82c23e8fc8c4eec7a",
            "0xb1a2e00259e2ebab5667c27120dede8150dc61d93c4fe43a1e7e672baa2422b5"
          ],
          "data": "0x000000000000000000000000000000000000000000000000000000000000000000000000000000000000000000000000000000000000000029a2241af62c0000",
          "blockHash": "0x1d019b98a5ed42e2322205c2f313a44d42e2e29d8e09c01415e470064170ce3e",
          "blockNumber": "0x9c1b24",
          "blockTimestamp": "0x698afa98",
          "transactionHash": "0x03b6fd523eddd8331e588ab55bf3a2787a09c748b150f3f361765907f749a667",
          "transactionIndex": "0x6d",
          "logIndex": "0xdb",
          "removed": false
        }
      ],
      "logsBloom": "0x00000004000000000000000000000000000000000020000000000000020000000000000000000000000000000000000000000000000000000000000000100000000000000000000000000008000000000000000000000000000020001020010008000000000000000000000000000000000020000000000000000010000040000000000000000000000000010000800000000020000000000000000000000000000000000000000000000000010000000000000000000000000004000080000000000002000000000000000000000000000000400000000100000000000000000010000000000000800000000000000000000000000000000000000000000000",
      "type": "0x2",
      "transactionHash": "0x03b6fd523eddd8331e588ab55bf3a2787a09c748b150f3f361765907f749a667",
      "transactionIndex": "0x6d",
      "blockHash": "0x1d019b98a5ed42e2322205c2f313a44d42e2e29d8e09c01415e470064170ce3e",
      "blockNumber": "0x9c1b24",
      "gasUsed": "0x133b1",
      "effectiveGasPrice": "0x3a3dc9b7",
      "from": "0x63c013128bf5c7628fc8b87b68aa90442af312aa",
      "to": "0x779877a7b0d9e8603169ddbd7836e478b4624789",
      "contractAddress": null
    }
  ],
  "libraries": [],
  "pending": [],
  "returns": {},
  "timestamp": 1770715801,
  "chain": 11155111,
  "commit": null
}